:020000040800F2
:100000000808002089010008E501000847050008EC
:10001000E5010008E5010008E50100080000000016
:10002000000000000000000000000000E5010008E2
:10003000E501000800000000E5010008E5010008F6
:10004000E5010008E5010008E5010008E5010008F8
:10005000E5010008E5010008E5010008E5010008E8
:10006000E5010008E5010008E5010008E5010008D8
:10007000E5010008E5010008E5010008E5010008C8
:10008000E5010008E5010008E5010008E5010008B8
:10009000E5010008E5010008E5010008E5010008A8
:1000A000E5010008E5010008E5010008E501000898
:1000B00085020008E5010008E5010008E5010008E7
:1000C000E5010008E5010008E5010008E501000878
:1000D000E5010008E5010008E5010008E501000868
:1000E000E5010008E5010008E5010008E501000858
:1000F000E5010008E5010008E5010008E501000848
:10010000E5010008E5010008E5010008E501000837
:10011000E5010008E5010008E5010008E501000827
:10012000E5010008E5010008E5010008E501000817
:10013000E5010008E5010008E5010008E501000807
:10014000E5010008E5010008E5010008E5010008F7
:10015000E5010008E5010008E5010008E5010008E7
:10016000E5010008E5010008E5010008E5010008D7
:10017000E5010008E5010008E5010008E5010008C7
:10018000E5010008E501000880B582B000AF104B22
:100190007B60104B3B6007E07A68131D7B603B6817
:1001A000191D396012681A603B680B4A9342F3D3F9
:1001B0000A480B494FF000028842B8BF40F8042BB0
:1001C000FADB00F057F800BF0837BD4680BD00BF1E
:1001D000EA070008000000200000002000000020C6
:1001E0000800002080B400AFFEE7000080B582B0B8
:1001F00000AF78607B68032B36D801A252F823F059
:1002000011020008270200083D02000853020008FE
:100210004FF48051164800F071F94FF460411448D2
:1002200000F07AF920E04FF40051114800F066F92F
:100230004FF460410E4800F06FF915E04FF4804133
:100240000B4800F05BF94FF46041094800F064F995
:100250000AE04FF40041064800F050F94FF46041C5
:10026000034800F059F900BF00BF0837BD4680BD04
:10027000000C024080B500AF00F022F800F040F81A
:10028000FEE7000080B500AF01214FF0804000F094
:1002900073FA0346002B0BD001214FF0804000F091
:1002A00094FA064B5B69054A83F40053536102E0FC
:1002B0000020FFF79BFF00BF80BD00BF000C024085
:1002C00080B500AF0121082000F04EF80A4B4FF432
:1002D00070421A60084B01221A71074B02225A71B0
:1002E000054B00229A71044B0022DA71024903483F
:1002F00000F076F800BF80BD00000020000C024036
:1003000080B584B000AF1C233B7300237B730123B3
:10031000BB730123FB7307F10C03184600F01EF9B1
:100320000121012000F03EF842F20F737B6040F2A1
:100330008F633B8000233B8100237B803B46194633
:100340004FF0804000F06CF9012201214FF0804015
:1003500000F0EFF901214FF0804000F0CBF900BF31
:100360001037BD4680BD000080B483B000AF786018
:100370000B46FB70FB78002B06D0094B1A6B084923
:100380007B6813430B6306E0054B1A6B7B68DB430A
:10039000034913400B6300BF0C37BD4680BC704758
:1003A0000038024080B483B000AF78600B46FB7029
:1003B000FB78002B06D0094B1A6C08497B68134365
:1003C0000B6406E0054B1A6C7B68DB430349134062
:1003D0000B6400BF0C37BD4680BC7047003802403C
:1003E00080B487B000AF7860396000237B61002360
:1003F0003B610023FB6000237B6176E001227B6987
:1004000002FA03F33B613B681B683A691340FB60E7
:10041000FA683B699A4265D17B681A687B695B0020
:10042000032101FA03F3DB431A407B681A607B68FF
:100430001A683B681B7919467B695B0001FA03F374
:100440001A437B681A603B681B79012B03D03B6819
:100450001B79022B2ED17B689A687B695B00032194
:1004600001FA03F3DB431A407B689A607B689A6861
:100470003B685B7919467B695B0001FA03F31A4319
:100480007B689A607B685A687B699BB21946012336
:100490008B40DB431A407B685A607B685B683A6834
:1004A000927911467A6992B201FA02F292B21A4333
:1004B0007B685A607B68DA687B699BB25B000321CA
:1004C00001FA03F3DB431A407B68DA607B68DA6881
:1004D0003B68DB7919467B695B0001FA03F31A4339
:1004E0007B68DA607B6901337B617B690F2B85D97F
:1004F00000BF00BF1C37BD4680BC704780B483B0CE
:1005000000AF78600B467B807B687A881A8300BFD7
:100510000C37BD4680BC704780B483B000AF7860B4
:100520000B467B807B687A885A8300BF0C37BD46B8
:1005300080BC7047ABBE01E000207047002A00D0AD
:10054000106001207047069801884BF6AB6291421B
:1005500002D1043006907047FEE7000080B485B0F9
:1005600000AF78600023FB730023BB730F237B7302
:100570007B68DB78002B39D0274BDB68DB431B0A19
:10058000DBB203F00703FB73FB7BC3F10403BB7314
:100590007A7BFB7B42FA03F37B737B685B781A46BA
:1005A000BB7B02FA03F3FB737B689A787B7B134077
:1005B000DAB2FB7B1343FB73FB7B1B01FB73174A14
:1005C0007B681B781344FA7B83F800237B681B78D5
:1005D00003F01F0311497A6812785209D2B210460B
:1005E000012202FA03F341F820300FE07B681B7808
:1005F00003F01F0309497A6812785209D2B21046F3
:1006000001229A4000F1200341F8232000BF143753
:10061000BD4680BC704700BF00ED00E000E100E097
:1006200080B485B000AF786039600023FB817B68BF
:100630001B88FB817B68284A934213D07B68274A3A
:1006400093420FD07B68B3F1804F0BD07B68244A74
:10065000934207D07B68234A934203D07B68224AA7
:10066000934208D1FB8923F07003FB813B685A88D1
:10067000FB891343FB817B681C4A93420CD07B6847
:100680001B4A934208D0FB8923F44073FB813B68EB
:100690001A89FB891343FB817B68FA891A803B68BE
:1006A0005A687B68DA623B681A887B681A857B68BF
:1006B000094A934203D07B68084A934204D13B68BD
:1006C0009B7A9AB27B681A867B6801229A8200BF65
:1006D0001437BD4680BC7047000001400004014053
:1006E0000004004000080040000C004000100040E2
:1006F0000014004080B483B000AF78600B46FB70FC
:10070000FB78002B08D07B681B889BB243F0010369
:100710009AB27B681A8007E07B681B889BB223F043
:1007200001039AB27B681A8000BF0C37BD4680BCBB
:10073000704780B483B000AF78600B467B8013466F
:100740007B707B78002B08D07B689B899AB27B8872
:1007500013439AB27B689A8109E07B689B899AB2BD
:100760007B88DB439BB213409AB27B689A8100BFBF
:100770000C37BD4680BC704780B485B000AF786050
:100780000B467B800023FB730023BB8100237B810E
:100790007B681B8A9AB27B881340BB817B689B89EC
:1007A0009AB27B8813407B81BB89002B05D07B8963
:1007B000002B02D00123FB7301E00023FB73FB7BC2
:1007C00018461437BD4680BC704780B483B000AF74
:1007D00078600B467B807B88DB439AB27B681A8209
:0A07E00000BF0C37BD4680BC704717
:0400000508000000EF
:00000001FF
